:1000000045C0000060C000005EC000005CC0000091
:100010005AC0000058C0000056C0000054C0000084
:1000200052C0000050C000004EC000004CC0000094
:100030004AC000006DC0000046C0000044C000007F
:1000400042C0000040C000003EC000003CC00000B4
:100050003AC0000038C0000036C0000034C00000C4
:1000600032C0000030C000002EC000002CC00000D4
:100070002AC0000028C0000026C0000024C00000E4
:1000800022C0000020C000001EC0000011241FBEBE
:10009000CFEFD0E4DEBFCDBF11E0A0E0B1E0ECEFE8
:1000A000F6E000E00BBF02C007900D92A431B1074B
:1000B000D9F721E0A4E1B1E001C01D92A032B2075E
:1000C000E1F743D119C39CCF8BE0809381008DE78A
:1000D00090E0909389008093880082E080936F0085
:1000E000109285001092840080911001909111016E
:1000F000A0911201B09113018093190190931A01FC
:10010000A0931B01B0931C018FB780688FBF089527
:100110001F920F920FB60F9211248F939F93AF935C
:10012000BF938091190190911A01A0911B01B09188
:100130001C010197A109B1098093190190931A013B
:10014000A0931B01B0931C01892B8A2B8B2B99F454
:1001500081E080931D018091100190911101A09187
:100160001201B09113018093190190931A01A09389
:100170001B01B0931C01BF91AF919F918F910F9084
:100180000FBE0F901F90189560931001709311018E
:1001900080931201909313016093190170931A01D7
:1001A00080931B0190931C010895CF92DF92EF92F0
:1001B000FF926B017C019B01AC0160911501709174
:1001C00016018091170190911801E0D0882309F45D
:1001D0004FC020E030E0A901C701B601D7D081119E
:1001E00006C0E1E9F0E080818870808305C0E1E924
:1001F000F0E080818360808328E539E344E75FE3B2
:10020000C701B601C3D088233CF48FEF9FEF9093D2
:1002100099008093980023C020E034E244EF56E434
:10022000C701B60102D218162CF410929900109250
:10023000980015C020E030E040E053E4C701B6016B
:10024000F8D19B01AC0160E074E284EF9AE4A2D0A3
:1002500009D161507109709399006093980016BCA0
:10026000C0921501D0921601E0921701F092180188
:10027000FF90EF90DF90CF90089580E480939000FE
:100280008BE08093910060E070E0CB018ECF089509
:100290001092900010929100089590911F0191305A
:1002A00051F028F09230A1F0933021F129C081E083
:1002B00080931F0132C010921401813029F482E032
:1002C00080931F01DADF1CC081E080931F0125C0ED
:1002D000809114018F5F80931401883020F482E0B4
:1002E00080931F011DC08830D9F483E080931F01E3
:1002F000CFDF06C0813019F181E080931F010DC06E
:1003000080911F01813049F028F0823049F083301C
:10031000C9F415C01092140108958FEF8BB9089598
:100320001BB8E0911401F0E0EE0FFF1FE050FF4F0B
:100330006081718180E090E0C6D037CF08958FE072
:100340008BB908951092140108958FEF84B915B8F0
:1003500011B882B98AB91BB810921E0164EF71E01E
:1003600080E090E011DFB0DE10921F0180B1809537
:10037000877093DF80911D018823E1F380911E0136
:100380008F5F80931E0110921D01F0CFD9D008F429
:1003900081E008950CD00FC107D140F0FED030F0BD
:1003A00021F45F3F19F0F0C0511139C1F3C014D1ED
:1003B00098F39923C9F35523B1F3951B550BBB272C
:1003C000AA2762177307840738F09F5F5F4F220FD9
:1003D000331F441FAA1FA9F333D00E2E3AF0E0E8D2
:1003E00030D091505040E695001CCAF729D0FE2F1E
:1003F00027D0660F771F881FBB1F261737074807B0
:10040000AB07B0E809F0BB0B802DBF01FF27935865
:100410005F4F2AF09E3F510568F0B6C000C15F3FB4
:10042000ECF3983EDCF3869577956795B795F7954D
:100430009F5FC9F7880F911D9695879597F9089545
:10044000E1E0660F771F881FBB1F621773078407E1
:10045000BA0720F0621B730B840BBA0BEE1F88F7F0
:10046000E095089504D06894B111D9C00895BCD026
:1004700088F09F5790F0B92F9927B751A0F0D1F08D
:10048000660F771F881F991F1AF0BA95C9F712C017
:10049000B13081F0C3D0B1E00895C0C0672F782F8C
:1004A0008827B85F39F0B93FCCF386957795679583
:1004B000B395D9F73EF490958095709561957F4FEF
:1004C0008F4F9F4F0895E89409C097FB3EF4909595
:1004D0008095709561957F4F8F4F9F4F9923A9F01D
:1004E000F92F96E9BB279395F695879577956795AC
:1004F000B795F111F8CFFAF4BB0F11F460FF1BC0F0
:100500006F5F7F4F8F4F9F4F16C0882311F096E982
:1005100011C0772321F09EE8872F762F05C0662330
:1005200071F096E8862F70E060E02AF09A95660FE9
:10053000771F881FDAF7880F9695879597F90895A2
:10054000990F0008550FAA0BE0E8FEEF16161706E4
:10055000E807F907C0F012161306E407F50798F04C
:10056000621B730B840B950B39F40A2661F0232B65
:10057000242B252B21F408950A2609F4A140A695E1
:100580008FEF811D811D089597F99F6780E870E0C6
:1005900060E008959FEF80EC089500240A941616F9
:1005A000170618060906089500240A941216130661
:1005B000140605060895092E0394000C11F48823EF
:1005C00052F0BB0F40F4BF2B11F460FF04C06F5F0B
:1005D0007F4F8F4F9F4F089557FD9058440F551FE1
:1005E00059F05F3F71F04795880F97FB991F61F0B5
:1005F0009F3F79F087950895121613061406551F2C
:10060000F2CF4695F1DF08C0161617061806991F97
:10061000F1CF86957105610508940895E894BB278C
:1006200066277727CB0197F908958ADF08F48FEFC3
:1006300008950BD0C0CFB1DF28F0B6DF18F09523B6
:1006400009F0A2CFA7CF1124EACFC6DFA0F3959F70
:10065000D1F3950F50E0551F629FF001729FBB27A9
:10066000F00DB11D639FAA27F00DB11DAA1F649F55
:100670006627B00DA11D661F829F2227B00DA11D08
:10068000621F739FB00DA11D621F839FA00D611D8E
:10069000221F749F3327A00D611D231F849F600DAF
:1006A000211D822F762F6A2F11249F5750408AF0E8
:1006B000E1F088234AF0EE0FFF1FBB1F661F771F74
:1006C000881F91505040A9F79E3F510570F05CCFB4
:1006D000A6CF5F3FECF3983EDCF386957795679560
:1006E000B795F795E7959F5FC1F7FE2B880F911D92
:0C06F0009695879597F90895F894FFCF30
:1006FC000501250149015D018801B801ED010B02DD
:04070C0001000000E8
:00000001FF
