S01C00006D6A696D653035315F6C616231305F70617274332E7372656328
S113000045C0000060C000005EC000005CC000008D
S11300105AC0000058C0000056C0000054C0000080
S113002052C0000050C000004EC000004CC0000090
S11300304AC000006DC0000046C0000044C000007B
S113004042C0000040C000003EC000003CC00000B0
S11300503AC0000038C0000036C0000034C00000C0
S113006032C0000030C000002EC000002CC00000D0
S11300702AC0000028C0000026C0000024C00000E0
S113008022C0000020C000001EC0000011241FBEBA
S1130090CFEFD0E4DEBFCDBF11E0A0E0B1E0EAEDE8
S11300A0F7E000E00BBF02C007900D92A430B10747
S11300B0D9F721E0A4E0B1E001C01D92A631B20756
S11300C0E1F7F0D188C39CCF8BE0809381008DE76A
S11300D090E0909389008093880082E080936F0081
S11300E0109285001092840080910001909101018A
S11300F0A0910201B091030180930D0190930E0130
S1130100A0930F01B09310018FB780688FBF08953B
S11301101F920F920FB60F9211248F939F93AF9358
S1130120BF9380910D0190910E01A0910F01B091A8
S113013010010197A109B10980930D0190930E015B
S1130140A0930F01B0931001892B8A2B8B2B99F468
S113015081E0809311018091000190910101A091AF
S11301600201B091030180930D0190930E01A093BD
S11301700F01B0931001BF91AF919F918F910F9098
S11301800FBE0F901F9018956093000170930101AA
S1130190809302019093030160930D0170930E010B
S11301A080930F01909310010895CF92DF92EF9204
S11301B0FF926B017C019B01AC016091070170917E
S11301C008018091090190910A018CD1882309F4D6
S11301D04FC020E030E0A901C701B60183D18111ED
S11301E006C0E1E9F0E080818870808305C0E1E920
S11301F0F0E080818360808328E539E344E75FE3AE
S1130200C701B6016FD188233CF48FEF9FEF909321
S113021099008093980023C020E034E244EF56E430
S1130220C701B60171D218162CF4109299001092DD
S1130230980015C020E030E040E053E4C701B60167
S113024067D29B01AC0160E074E284EF9AE44ED182
S1130250B5D161507109709399006093980016BCF0
S1130260C0920701D0920801E0920901F0920A01BC
S1130270FF90EF90DF90CF90089580E480939000FA
S11302808BE08093910060E070E0CB018ECF089505
S113029080911401813051F028F08230B9F083301C
S11302A029F134C081E0809314013BC080910601A0
S11302B0863920F48F5F8093060133C0863989F52F
S11302C082E080931401109206012FC080910601F0
S11302D0863920F48F5F8093060127C0863929F57B
S11302E083E0809314011092060117C080910601E7
S11302F0863920F48F5F809306010FC0863969F434
S113030081E080931401109206010BC01092140135
S113031010920C0110920601089584E080930C0160
S1130320089581E080930C01089582E080930C018C
S11303300895809113018130B9F018F0823029F0CA
S113034022C082E08093130127C080910401909120
S11303500501843F914004F181E0809313011092E0
S113036005011092040124C08091040190910501BB
S1130370843F9140ECF082E08093130110920501D8
S11303801092040109C01092130110920B011092F3
S1130390050110920401089510920B01809104014B
S11303A090910501019690930501809304010895AD
S11303B088E080930B0180910401909105010196DE
S11303C09093050180930401089580911501882379
S11303D019F0813041F004C081E08093150103C01D
S11303E010921501089590910C0180910B01890FD1
S11303F085B9089590911201923091F028F49923CF
S113040041F0913051F036C0933009F1943041F10C
S113041031C082E08093120135C08430A1F402C05F
S1130420843089F484E08093120127DF80911201E3
S1130430823041F118F48130A1F51FC0833039F1C5
S1130440843051F1089582E0809312011BC08430FE
S113045019F48093120120C081E0809312010DC031
S1130460843021F483E08093120111C081E08093F1
S1130470120103C010921201089560E070E0CB01F4
S113048094CE089560E070E0CB018FCE089560E0D3
S113049070E0CB018ACE089568EB7EE988E593E4A9
S11304A084CE089511B88FEF82B984B915B810922B
S11304B01401109213011092150162E070E080E0C3
S11304C090E062DE01DEC0B1E3DE33DF7EDF8C2F3D
S11304D0809584708FDF809111018823E1F310925D
S11304E01101F1CF9CD008F481E008950CD0D2C062
S11304F0CAD040F0C1D030F021F45F3F19F0B3C04E
S11305005111FCC0B6C0D7D098F39923C9F3552331
S1130510B1F3951B550BBB27AA27621773078407F2
S113052038F09F5F5F4F220F331F441FAA1FA9F3A8
S113053033D00E2E3AF0E0E830D091505040E6959A
S1130540001CCAF729D0FE2F27D0660F771F881FFB
S1130550BB1F261737074807AB07B0E809F0BB0BEA
S1130560802DBF01FF2793585F4F2AF09E3F51050E
S113057068F079C0C3C05F3FECF3983EDCF3869526
S113058077956795B795F7959F5FC9F7880F911D84
S11305909695879597F90895E1E0660F771F881F70
S11305A0BB1F621773078407BA0720F0621B730B23
S11305B0840BBA0BEE1F88F7E095089504D0689475
S11305C0B1119CC008957FD088F09F5790F0B92F47
S11305D09927B751A0F0D1F0660F771F881F991F94
S11305E01AF0BA95C9F712C0B13081F086D0B1E0E3
S11305F0089583C0672F782F8827B85F39F0B93FF3
S1130600CCF3869577956795B395D9F73EF4909595
S11306108095709561957F4F8F4F9F4F0895990FE7
S11306200008550FAA0BE0E8FEEF16161706E807B8
S1130630F907C0F012161306E407F50798F0621BD9
S1130640730B840B950B39F40A2661F0232B242BAE
S1130650252B21F408950A2609F4A140A6958FEFCD
S1130660811D811D089597F99F6780E870E060E01F
S113067008959FEF80EC089500240A941616170637
S113068018060906089500240A941216130614067F
S113069005060895092E0394000C11F4882352F0E2
S11306A0BB0F40F4BF2B11F460FF04C06F5F7F4F9A
S11306B08F4F9F4F089557FD9058440F551F59F081
S11306C05F3F71F04795880F97FB991F61F09F3F3B
S11306D079F087950895121613061406551FF2CF64
S11306E04695F1DF08C0161617061806991FF1CFB4
S11306F086957105610508940895E894BB276627DB
S11307007727CB0197F908958ADF08F48FEF0895CE
S11307100BD0C0CFB1DF28F0B6DF18F0952309F075
S1130720A2CFA7CF1124EACFC6DFA0F3959FD1F3C0
S1130730950F50E0551F629FF001729FBB27F00D8B
S1130740B11D639FAA27F00DB11DAA1F649F6627E0
S1130750B00DA11D661F829F2227B00DA11D621F2F
S1130760739FB00DA11D621F839FA00D611D221FE9
S1130770749F3327A00D611D231F849F600D211DCD
S1130780822F762F6A2F11249F5750408AF0E1F070
S113079088234AF0EE0FFF1FBB1F661F771F881FB9
S11307A091505040A9F79E3F510570F05CCFA6CF01
S11307B05F3FECF3983EDCF3869577956795B795A4
S11307C0F795E7959F5FC1F7FE2B880F911D9695CE
S10D07D0879597F90895F894FFCF78
S10707DA0100000016
S9030000FC
