:1000000045C0000053C0000051C000004FC00000B8
:100010004DC000004BC0000049C0000047C00000B8
:1000200045C0000043C0000041C000003FC00000C8
:100030003DC000003BC0000039C0000037C00000D8
:1000400035C0000033C0000031C000002FC00000E8
:100050002DC000002BC0000029C0000027C00000F8
:1000600025C0000023C0000021C000001FC0000008
:100070001DC000001BC0000019C0000017C0000018
:1000800015C0000013C0000011C0000011241FBEE5
:10009000CFEFD0E4DEBFCDBF21E0A0E0B1E001C0F2
:1000A0001D92A130B207E1F794D09FC0A9CF1816D6
:1000B00019065CF00895000021503109E1F74F5F07
:1000C0005F4F8417950719F4089540E050E027E04A
:1000D00033E0F1CF16988BB9179A0000179882E099
:1000E00090E0E5CF089584E690E0E1DF88E3F2DF79
:1000F00086E0F0DF8FE0EEDF81E0ECDF8AE090E089
:10010000D6CF08958FEE88B90000309B29C0319B6F
:1001100029C0329B29C0339B29C08FED88B90000CC
:10012000309B26C0319B26C0329B26C0339B26C005
:100130008FEB88B90000309B23C0319B23C0329BDA
:1001400023C0339B23C08FE788B90000309B20C0B9
:10015000319B20C0329B20C0339B20C080E008959B
:1001600081E3089584E3089587E308958AE208957A
:1001700082E3089585E3089588E3089580E3089570
:1001800083E3089586E3089589E3089583E208955B
:1001900081E4089582E4089583E4089584E4089551
:1001A000B1DF90910001913041F018F0923051F0A0
:1001B0000DC081E080930001089592E090930001CA
:1001C00085B9089581E0809300010895109200019F
:1001D00008958FEF84B915B88AB91BB880EF87B935
:0E01E0008FE088B980DFDCDFFECFF894FFCF20
:00000001FF
