S013000066696E616C437573746F6D2E737265638C
S113000035C1000050C100004EC100004CC10000C9
S11300104AC1000048C1000046C1000044C10000BC
S113002042C1000040C100003EC100003CC10000CC
S11300303AC10000C1C2000036C1000034C1000052
S113004032C1000030C100002EC100002CC10000EC
S11300502AC1000028C1000026C1000024C10000FC
S113006022C1000020C100001EC100001CC100000C
S11300701AC1000018C1000016C1000014C100001C
S113008012C1000010C100000EC1000000000000F9
S11300900000005F00000007000700147F147F14B5
S11300A0242A7F2A122313086462364955225000F9
S11300B005030000001C2241000041221C0014081A
S11300C03E081408083E08080050300000080808DC
S11300D00808006060000020100804023E514945F1
S11300E03E00427F400042615149462141454B3127
S11300F01814127F1027454545393C4A49493001B7
S1130100710905033649494936064949291E00360D
S1130110360000005636000008142241001414145E
S1130120141400412214080201510906324979418C
S11301303E7E1111117E7F494949363E414141229B
S11301407F4141221C7F494949417F090909013EF8
S11301504149497A7F0808087F00417F41002040D7
S1130160413F017F081422417F404040407F020C00
S1130170027F7F0408107F3E4141413E7F09090907
S1130180063E4151215E7F091929464649494931B4
S113019001017F01013F4040403F1F2040201F3F9D
S11301A04038403F6314081463070870080761511E
S11301B0494543007F4141000204081020004141A9
S11301C07F00040201020440404040400001020458
S11301D00020545454787F484444383844444420DC
S11301E0384444487F3854545418087E0901020C9A
S11301F05252523E7F0804047800447D400020405F
S1130200443D007F1028440000417F40007C0418D6
S113021004787C0804047838444444387C14141466
S113022008081414187C7C08040408485454542006
S1130230043F4440203C4040207C1C2040201C3C87
S11302404030403C44281028440C5050503C4464F6
S1130250544C44000836410000007F000000413641
S113026008001008081008000000000011241FBE38
S1130270CFEFD0E4DEBFCDBF11E0A0E0B1E0ECE011
S1130280FDE000E00BBF02C007900D92A234B1075D
S1130290D9F723E0A2E4B1E001C01D92A638B20769
S11302A0E1F729D431C5ACCE2898662311F02A9AF7
S11302B015C02A9813C0AC01022E02C0559547956B
S11302C00A94E2F740FF02C02B9A01C02B982C9AA3
S11302D02C982150310978F7289A089527E030E0C6
S11302E090E0E9CF60E0E0CF0895CF93DF93209AC8
S11302F0219A229A239A249A299A289A83EC99E09B
S11303000197F1F700C0000029988BE594E4019768
S1130310F1F700C00000299A289881E2E3DF83E125
S1130320E1DF86E0DFDF82ECDDDF80E2DBDF89E036
S1130330D9DF80E8D7DF80E4D5DFC8EFD1E061E022
S113034080E0B2DF2197D9F788E0CCDF8CE0CADF08
S1130350DF91CF91089580E8C5DF80E4C3DF109278
S1130360420310924303EAE4F1E082E493E0119241
S1130370E817F907E1F70895262F2695269526957F
S113038090E034E5239F800D911D1124442379F0DE
S1130390FC01E65BFE4F677081E090E002C0880FCD
S11303A0991F6A95E2F79081892B80830895FC0157
S11303B0E65BFE4F677081E090E002C0880F991FF2
S11303C06A95E2F7809590818923808308955F92EE
S11303D06F927F928F929F92AF92BF92CF92DF9251
S11303E0EF92FF920F931F93CF93DF93562E262FF6
S11303F030E04901880C991C880C991C820E931ECC
S1130400181419040CF059C08901000F111F000FB2
S1130410111F000F111F021B130B612CA82EB12CEE
S1130420C50180975C01AA0CBB1CAA0CBB1CA80EBE
S1130430B91E0F2EF3E4CF2EF3E0DF2EF02D0F2E96
S1130440F2E4EF2EF3E0FF2EF02D2AC0FE012491FA
S113045030E0872D652D73D302C0359527958A9595
S1130460E2F720FF09C0F6016081670DF701808182
S113047041E0860D81DF08C0F6016081670DF70158
S1130480808140E0860D78DF7394872D90E080179B
S11304909107E4F26394862D90E0881599056CF435
S11304A010161106BCF7862D652D49D3E501C80F3A
S11304B0D11DC457DF4F712CC9CF8091420391E005
S11304C0980F852D880F880F850D890F843518F4B2
S11304D0809342030EC010924203E3E4F3E0808170
S11304E091E0980F852D880F880F880F8519890F43
S11304F0808380914303803320F010924203109252
S11305004303DF91CF911F910F91FF90EF90DF9004
S1130510CF90BF90AF909F908F907F906F905F909F
S113052008951F93CF93DF93EC018881882339F0DA
S1130530162F2196612F4BDF89918111FBCFDF911B
S1130540CF911F9108950F931F93CF93DF9380E86A
S1130550C9DE80E4C7DECAE4D1E002E413E061E06E
S11305608991A2DEC017D107D1F7DF91CF911F91F6
S11305700F910895109A119A0895119A109A11984A
S113058020B130E02095309522FB882780F990E057
S113059040E150E01098880F991F20B130E0209579
S11305A0309522FB662760F970E0862B972B109A12
S11305B04150510979F708951F920F920FB60F9287
S11305C011248F939F93AF93BF9380914501909192
S11305D04601A0914701B09148010197A109B109D1
S11305E08093450190934601A0934701B09348013D
S11305F0892B8A2B8B2B99F481E08093490180917C
S1130600050190910601A0910701B0910801809322
S1130610450190934601A0934701B0934801BF91CF
S1130620AF919F918F910F900FBE0F901F901895CF
S1130630CF93DF93009789F08130910541F4D1E0A5
S1130640C0E08091040181111AC0D0E018C0009765
S113065039F0019709F05EC010C0D1E0C0E002C0DB
S1130660D0E0C0E080910401813009F055C0E1E898
S1130670F3E08AE2808381834FC0D0E0C0E08091C0
S11306800401813009F048C078DF909344018093DD
S11306904301E1E8F3E081819081909342038093E8
S11306A0430361E080E293DE809143019091440131
S11306B08038910531F4E1E8F3E080818C5F808338
S11306C01CC0811520E4920731F4E1E8F3E0808155
S11306D08450808312C0811520E8920731F4E1E848
S11306E0F3E081818C5F818308C08034910529F413
S11306F0E1E8F3E0818184508183E1E8F3E08181E2
S11307009081909342038093430361E08AE25FDE29
S11307101ADF02C0D0E0C0E08D2F9C2FDF91CF9173
S113072008956F927F928F929F92AF92BF92CF92D1
S1130730DF92EF92FF920F931F93CF93DF93009773
S1130740B1F08130910569F480910401813009F0A0
S11307508FC0712C90918003913508F080E0682E51
S113076044C0009721F0019709F082C039C08091FC
S11307700401813009F079C0C4E4D3E00F2EF8E518
S1130780AF2EF3E0BF2EF02D0F2EF0E5CF2ED12C9F
S1130790F02D0F2EFEE18F2E912CF02D0F2EF2E472
S11307A0EF2EF3E0FF2EF02D03E413E042D2B60166
S11307B0D2D188833ED2B401CED1885F8983988117
S11307C0F7019083F801808361E08DE300DEBBDEF6
S11307D02296CA15DB0551F766246394712C48C030
S11307E080910401813009F043C00F2EF4E48F2E70
S11307F0F3E09F2EF02D0F2EF8E5CF2EF3E0DF2E41
S1130800F02D0F2EF2E4EF2EF3E0FF2EF02D03E493
S113081013E00F2EFEE1AF2EB12CF02DE4018981FF
S11308209881F7019083F801808361E080E2CFDD55
S11308308881803518F48C5F888306C01882F9D1CA
S1130840B50189D1885F898389819881F701908373
S1130850F801808361E08DE3BADD75DEF2E08F0E8E
S1130860911C8C149D04D1F603C066246394712CEE
S1130870862D972DDF91CF911F910F91FF90EF90CF
S1130880DF90CF90BF90AF909F908F907F906F90AC
S11308900895CF92DF92EF92FF920F931F93CF931D
S11308A0DF939C01892B41F481E090E020910401C5
S11308B0213089F480E00FC081E090E04091040190
S11308C0413009F480E02115310529F0213031054A
S11308D009F440C041C0209104012130E9F5E1E868
S11308E0F3E06081C62FD0E026967181072F10E0D7
S11308F00A5F1F4FC0904201E4E4F3E00F2EF8E5D5
S1130900EF2EF3E0FF2EF02DD22EDF012081422FB7
S113091050E04C175D075CF4621748F421817217AC
S113092090F430E02017310774F4CD2C0CC01196EC
S11309303C91432F50E0401751072CF4731718F4DF
S1130940261301C0CD2C3296EE15FF05F1F6C092A8
S1130950420102C010924201DF91CF911F910F9189
S1130960FF90EF90DF90CF900895CF92DF92FF92A7
S11309700F931F93CF93DF93EC0181309105C1F066
S11309801CF4892B39F02CC082309105B9F00397FF
S1130990D9F026C0F2DD909344018093430131E005
S11309A020E08115904109F030E0C32FD22F28C0F8
S11309B080910401813009F044C08EC080914201CD
S11309C0813009F05BC08BC0D8DD909344018093E3
S11309D043018115904209F055C0C0E0D0E052C0F7
S11309E0C130D10561F124F4209709F072C008C028
S11309F0C230D10509F440C0239709F06AC040C051
S1130A0081E080930401A7DC0F2EF2E4CF2EF3E003
S1130A10DF2EF02DF601108203E413E0F8011082BA
S1130A2061E089E091E07DDDF60110828AE0F80161
S1130A30808361E080E191E074DD85DD53C0C0E036
S1130A40D0E00F2EF2E4CF2EF3E0DF2EF02DF601EE
S1130A50108203E413E0F801108261E083E291E084
S1130A6060DDF60110828AE0F801808361E08DE1A7
S1130A7091E057DD68DD36C0C0E0D0E064DD32C00F
S1130A80C0E0D0E01092040166DC0F2EF2E4CF2E19
S1130A90F3E0DF2EF02DF601108203E413E0F801F9
S1130AA0108261E08AE291E03CDDF60110820F2EB3
S1130AB0F4E1FF2EF02DF801F08263E08AE387DC95
S1130AC0F601F082F801F08263E088E280DC3BDD2D
S1130AD009C0C0E0D0E006C0C2E0D0E0B2CFC3E0BD
S1130AE0D0E0CCCFCE01DF91CF911F910F91FF9039
S1130AF0DF90CF90089583E081B912B8F6DB2BDC48
S1130B0039DDC12CD12CE12CF12C00E010E0C0E047
S1130B10D0E0CE018DDDEC01C80103DE8C01C701FC
S1130B20B8DE7C01C60121DF6C012FE38DE093E088
S1130B30215080409040E1F700C00000EACF991BAB
S1130B4079E004C0991F961708F0961B881F7A95C0
S1130B50C9F78095089597FB072E16F4009406D0E4
S1130B6077FD08D00BD007FC05D03EF49095819515
S1130B709F4F0895709561957F4F0895AA1BBB1BE5
S1130B8051E107C0AA1FBB1FA617B70710F0A61B89
S1130B90B70B881F991F5A95A9F780959095BC01AA
S1130BA0CD0108958F929F92AF92BF92CF92DF9220
S1130BB0EF92FF92CF93DF93EC01688179818A8170
S1130BC09B81611571058105910521F464E279ED3C
S1130BD08BE597E02DE133EF41E050E038D0490157
S1130BE05A019B01AC01A7EAB1E44DD06B017C0131
S1130BF0ACEEB4EFA501940152D0DC01CB018C0D15
S1130C009D1DAE1DBF1DB7FF03C00197A109B048CC
S1130C1088839983AA83BB839F77DF91CF91FF90C9
S1130C20EF90DF90CF90BF90AF909F908F900895FA
S1130C30B9CF80E091E0B6CFA0E0B0E080930001AE
S1130C4090930101A0930201B09303010895052E2E
S1130C5097FB16F400940FD057FD05D024D007FC61
S1130C6002D046F408C050954095309521953F4FE9
S1130C704F4F5F4F089590958095709561957F4F84
S1130C808F4F9F4F089531D0A59F900DB49F900D25
S1130C90A49F800D911D11240895B7FFF4CFF3DFB5
S1130CA0821B930B0895A1E21A2EAA1BBB1BFD0104
S1130CB00DC0AA1FBB1FEE1FFF1FA217B307E40737
S1130CC0F50720F0A21BB30BE40BF50B661F771F8F
S1130CD0881F991F1A9469F760957095809590956F
S1130CE09B01AC01BD01CF010895A29FB001B39F48
S1130CF0C001A39F700D811D1124911DB29F700D21
S10F0D00811D1124911D0895F894FFCF6B
S1130D0C01000000010100000052656164793F009C
S1130D1C5072657373205374617274210020202007
S1130D2C20202020202020202000594F55204C4FDB
S1130D3C5354212050726573732053656C6563742E
S1050D4C0000A1
S9030000FC
