:1000000045C0000060C000005EC000005CC0000091
:100010005AC0000058C0000056C0000054C0000084
:1000200052C0000050C000004EC000004CC0000094
:100030004AC000006DC0000046C0000044C000007F
:1000400042C0000040C000003EC000003CC00000B4
:100050003AC0000038C0000036C0000034C00000C4
:1000600032C0000030C000002EC000002CC00000D4
:100070002AC0000028C0000026C0000024C00000E4
:1000800022C0000020C000001EC0000011241FBEBE
:10009000CFEFD0E4DEBFCDBF11E0A0E0B1E0E8E9F2
:1000A000F2E000E00BBF02C007900D92A430B10750
:1000B000D9F721E0A4E0B1E001C01D92AE30B20753
:1000C000E1F7CFD0E7C09CCF8BE0809381008DE734
:1000D00090E0909389008093880082E080936F0085
:1000E000109285001092840080910001909101018E
:1000F000A0910201B0910301809306019093070142
:10010000A0930801B09309018FB780688FBF08954D
:100110001F920F920FB60F9211248F939F93AF935C
:10012000BF938091060190910701A0910801B091C1
:1001300009010197A109B109809306019093070174
:10014000A0930801B0930901892B8A2B8B2B99F47A
:1001500081E080930A018091000190910101A091BA
:100160000201B09103018093060190930701A093CF
:100170000801B0930901BF91AF919F918F910F90AA
:100180000FBE0F901F9018956093000170930101AE
:10019000809302019093030160930601709307011D
:1001A0008093080190930901089580910C0181309A
:1001B00051F028F0823069F0833091F015C081E071
:1001C00080930C0116C082E080930C01809305019E
:1001D000089583E080930C0184E0809305010895E5
:1001E00081E080930C0105C010920C011092050172
:1001F000089581E080930501089580910B0181307D
:1002000079F018F0823029F00FC082E080930B0162
:1002100010C081E080930B0188E080930401089571
:1002200082E080930B0105C010920B011092040133
:10023000089510920401089580910D01882319F00A
:10024000813041F004C081E080930D0103C0109221
:100250000D0108959091050180910401890F85B9E0
:1002600008958FEF84B915B810920C0110920B010C
:1002700010920D0168EE73E080E090E085DF24DFEE
:1002800094DFBBDFD9DF80910A018823E1F310926C
:080290000A01F6CFF894FFCF3C
:040298000100000061
:00000001FF
