:1000000045C0000060C000005EC000005CC0000091
:100010005AC0000058C0000056C0000054C0000084
:1000200052C0000050C000004EC000004CC0000094
:100030004AC00000C5C0000046C0000044C0000027
:1000400042C0000040C000003EC000003CC00000B4
:100050003AC0000038C0000036C0000034C00000C4
:1000600032C0000030C000002EC000002CC00000D4
:100070002AC0000028C0000026C0000024C00000E4
:1000800022C0000020C000001EC0000011241FBEBE
:10009000CFEFD0E4DEBFCDBF11E0A0E0B1E0E6EEEF
:1000A000F2E000E00BBF02C007900D92AE32B10744
:1000B000D9F721E0AEE2B1E001C01D92A333B2074F
:1000C000E1F7CBD00EC19CCF181619065CF008954D
:1000D000000021503109E1F74F5F5F4F841795070A
:1000E00019F4089540E050E027E033E0F1CF109894
:1000F0008BB9119A0000119882E090E0E5CF089545
:1001000081E0F5CF0895813118F48158F0CF08953A
:100110008155EDCF089584E690E0D6DF88E3E7DFF0
:1001200086E0E5DF8FE0E3DF81E0E1DF8AE090E079
:10013000CBCF0895109A8BB9119A0000119881E0E5
:1001400090E0C2CF08950F931F93CF93DF93182FA2
:10015000EB01D6DF8881882351F001E0010F812F68
:10016000D2DF8991E7DF102F88818111F6CFDF91EF
:10017000CF911F910F9108958BE0809381008DE7BF
:1001800090E0909389008093880082E080936F00D4
:1001900010928500109284008091000190910101DD
:1001A000A0910201B091030180932E0190932F0141
:1001B000A0933001B09331018FB780688FBF08954D
:1001C0001F920F920FB60F9211248F939F93AF93AC
:1001D000BF9380912E0190912F01A0913001B09199
:1001E00031010197A109B10980932E0190932F014C
:1001F000A0933001B0933101892B8A2B8B2B99F47A
:1002000081E0809332018091000190910101A091E1
:100210000201B091030180932E0190932F01A093CE
:100220003001B0933101BF91AF919F918F910F90A9
:100230000FBE0F901F9018956093000170930101FD
:10024000809302019093030160932E0170932F011C
:1002500080933001909331010895CF93DF93CDB710
:10026000DEB7EA970FB6F894DEBF0FBECDBF8FEFB3
:1002700081B912B884B915B88AB91BB880EF87B9AB
:100280008FE088B989E2E4E0F1E0DE0111960190A7
:100290000D928A95E1F73FDF6FDF64EF71E080E058
:1002A00090E0CADF10E001C010E080E1E1E0F0E0A2
:1002B000EC0FFD1FE10FF11DDE019A9601900D92EA
:1002C0008A95E1F7BE01665D7F4F81E03CDF80915A
:1002D00032018823E1F310923201163228F71F5FB2
:0602E000E4CFF894FFCF0B
:1002E60001000000435331323042206973204C65CF
:1002F60067656E642E2E2E207761697420666F7294
:0E0306002069742E2E2E204461727921000091
:00000001FF
