:1000000045C0000060C000005EC000005CC0000091
:100010005AC0000058C0000056C0000054C0000084
:1000200052C0000050C000004EC000004CC0000094
:100030004AC000006DC0000046C0000044C000007F
:1000400042C0000040C000003EC000003CC00000B4
:100050003AC0000038C0000036C0000034C00000C4
:1000600032C0000030C000002EC000002CC00000D4
:100070002AC0000028C0000026C0000024C00000E4
:1000800022C0000020C000001EC0000011241FBEBE
:10009000CFEFD0E4DEBFCDBF11E0A0E0B1E0EAE1F8
:1000A000F3E000E00BBF02C007900D92A430B1074F
:1000B000D9F721E0A4E0B1E001C01D92A031B20760
:1000C000E1F710D128C19CCF8BE0809381008DE7B0
:1000D00090E0909389008093880082E080936F0085
:1000E000109285001092840080910001909101018E
:1000F000A0910201B091030180930801909309013E
:10010000A0930A01B0930B018FB780688FBF089549
:100110001F920F920FB60F9211248F939F93AF935C
:10012000BF938091080190910901A0910A01B091BB
:100130000B010197A109B10980930801909309016E
:10014000A0930A01B0930B01892B8A2B8B2B99F476
:1001500081E080930C018091000190910101A091B8
:100160000201B09103018093080190930901A093CB
:100170000A01B0930B01BF91AF919F918F910F90A6
:100180000FBE0F901F9018956093000170930101AE
:100190008093020190930301609308017093090119
:1001A00080930A0190930B01089580910E01813094
:1001B00051F028F08230B9F0833021F133C081E072
:1001C00080930E013AC080910501833020F48F5F47
:1001D0008093050132C0833081F582E080930E0167
:1001E000109205012EC080910501833020F48F5FAD
:1001F0008093050126C0833021F580930E01109273
:10020000050117C080910501833020F48F5F809332
:1002100005010FC0833069F481E080930E011092D4
:1002200005010BC010920E011092070110920501FA
:10023000089584E080930701089581E08093070189
:10024000089582E080930701089580910D01813027
:1002500091F018F0823029F018C082E080930D01EF
:100260001BC0809104018A30B8F081E080930D01B9
:100270001092040119C0809104018A30A8F082E034
:1002800080930D011092040107C010920D0110928D
:100290000601109204010895109206018091040154
:1002A0008F5F80930401089588E080930601809118
:1002B00004018F5F80930401089580910F018823CA
:1002C00019F0813041F004C081E080930F0103C038
:1002D00010920F0108959091070180910601890FF6
:1002E00085B908958FEF84B915B810920E01109258
:1002F0000D0110920F0164E670E080E090E044DFB1
:10030000E3DE53DFA2DFD9DF80910C018823E1F324
:0A03100010920C01F6CFF894FFCF15
:04031A0001000000DE
:00000001FF
