:1000000035C1000050C100004EC100004CC10000CD
:100010004AC1000048C1000046C1000044C10000C0
:1000200042C1000040C100003EC100003CC10000D0
:100030003AC1000059C6000036C1000034C10000BA
:1000400032C1000030C100002EC100002CC10000F0
:100050002AC1000028C1000026C1000024C1000000
:1000600022C1000020C100001EC100001CC1000010
:100070001AC1000018C1000016C1000014C1000020
:1000800012C1000010C100000EC1000000000000FD
:100090000000005F00000007000700147F147F14B9
:1000A000242A7F2A122313086462364955225000FD
:1000B00005030000001C2241000041221C0014081E
:1000C0003E081408083E08080050300000080808E0
:1000D0000808006060000020100804023E514945F5
:1000E0003E00427F400042615149462141454B312B
:1000F0001814127F1027454545393C4A49493001BB
:10010000710905033649494936064949291E003611
:100110003600000056360000081422410014141462
:100120001414004122140802015109063249794190
:100130003E7E1111117E7F494949363E414141229F
:100140007F4141221C7F494949417F090909013EFC
:100150004149497A7F0808087F00417F41002040DB
:10016000413F017F081422417F404040407F020C04
:10017000027F7F0408107F3E4141413E7F0909090B
:10018000063E4151215E7F091929464649494931B8
:1001900001017F01013F4040403F1F2040201F3FA1
:1001A0004038403F63140814630708700807615122
:1001B000494543007F4141000204081020004141AD
:1001C0007F0004020102044040404040000102045C
:1001D0000020545454787F484444383844444420E0
:1001E000384444487F3854545418087E0901020C9E
:1001F0005252523E7F0804047800447D4000204063
:10020000443D007F1028440000417F40007C0418DA
:1002100004787C0804047838444444387C1414146A
:1002200008081414187C7C0804040848545454200A
:10023000043F4440203C4040207C1C2040201C3C8B
:100240004030403C44281028440C5050503C4464FA
:10025000544C44000836410000007F000000413645
:1002600008001008081008000000000011241FBE3C
:10027000CFEFD0E4DEBFCDBF11E0A0E0B1E0EEE60D
:10028000F0E100E00BBF02C007900D92A835B10766
:10029000D9F723E0A8E5B1E001C01D92AF39B2075C
:1002A000E1F75ED5E2C6ACCE2898662311F02A9A13
:1002B00015C02A9813C0AC01022E02C0559547956F
:1002C0000A94E2F740FF02C02B9A01C02B982C9AA7
:1002D0002C982150310978F7289A089527E030E0CA
:1002E00090E0E9CF60E0E0CF0895CF92DF92EF9207
:1002F000FF920F931F93CF93DF939C01892B41F4BF
:1003000081E090E020915901213081F480E00EC01D
:1003100081E090E040915901413009F480E02115DD
:10032000310521F02130310579F130C0209159019A
:10033000213061F5E8E9F3E0E0806E2D70E0685F60
:100340007F4FD1800D2D10E0085F1F4FC0905801E6
:10035000EBE5F3E0CFE6D3E0F22E2081422F50E030
:100360004617570754F4E21640F42181D21628F4B8
:1003700030E0201731070CF4CF2C3296EC17FD0734
:1003800061F7C092580102C010925801DF91CF91DD
:100390001F910F91FF90EF90DF90CF900895CF9332
:1003A000DF93209A219A229A239A249A299A289AAA
:1003B00083EC99E00197F1F700C0000029988BE5E4
:1003C00094E40197F1F700C00000299A289881E28F
:1003D00089DF83E187DF86E085DF82EC83DF80E2EF
:1003E00081DF89E07FDF80E87DDF80E47BDFC8EFAD
:1003F000D1E061E080E058DF2197D9F788E072DF33
:100400008CE070DFDF91CF91089580E86BDF80E4AE
:1004100069DF1092590310925A03E1E6F1E089E591
:1004200093E01192E817F907E1F70895262F269532
:100430002695269590E034E5239F800D911D11248B
:10044000442379F0FC01EF59FE4F677081E090E0A2
:1004500002C0880F991F6A95E2F79081892B8083EB
:100460000895FC01EF59FE4F677081E090E002C0F3
:10047000880F991F6A95E2F7809590818923808380
:1004800008955F926F927F928F929F92AF92BF92E8
:10049000CF92DF92EF92FF920F931F93CF93DF9350
:1004A000562E262F30E04901880C991C880C991C87
:1004B000820E931E181419040CF059C08901000F04
:1004C000111F000F111F000F111F021B130B612CB6
:1004D000A82EB12CC50180975C01AA0CBB1CAA0CEC
:1004E000BB1CA80EB91E0F2EFAE5CF2EF3E0DF2EAF
:1004F000F02D0F2EF9E5EF2EF3E0FF2EF02D2AC0A0
:10050000FE01249130E0872D652DB4D402C03595CD
:1005100027958A95E2F720FF09C0F6016081670DF3
:10052000F701808141E0860D81DF08C0F60160811E
:10053000670DF701808140E0860D78DF7394872D89
:1005400090E080179107E4F26394862D90E088157F
:1005500099056CF410161106BCF7862D652D8AD40A
:10056000E501C80FD11DC457DF4F712CC9CF809151
:10057000590391E0980F852D880F880F850D890FFD
:10058000843518F4809359030EC010925903EAE59C
:10059000F3E0808191E0980F852D880F880F880FF8
:1005A0008519890F808380915A03803320F010923F
:1005B000590310925A03DF91CF911F910F91FF9031
:1005C000EF90DF90CF90BF90AF909F908F907F90F3
:1005D0006F905F9008951F93CF93DF93EC01888114
:1005E000882339F0162F2196612F4BDF89918111D5
:1005F000FBCFDF91CF911F9108950F931F93CF935E
:10060000DF9380E86FDE80E46DDEC1E6D1E009E5CE
:1006100013E061E0899148DEC017D107D1F7DF917F
:10062000CF911F910F9108957F928F929F92AF92D9
:10063000BF92CF92DF92EF92FF920F931F93CF93CF
:10064000DF93009729F08130910509F45AC009C061
:1006500081E000E090915901913009F080E0782E1E
:1006600006C0009721F0019709F0BAC04AC08091F6
:100670005901813009F0B4C0CBE5D3E010E00F2E72
:10068000F0E58F2E912CF02D0F2EFEE1AF2EB12C28
:10069000F02D0F2EF9E5CF2EF3E0DF2EF02D0F2EEB
:1006A000FAE5EF2EF3E0FF2EF02D10FD13C05CD421
:1006B000B401ECD3888358D4B501E8D3885F89832B
:1006C0009881F6019083F701808361E08DE3D9DEA4
:1006D00094DF12C049D4B401D9D3888345D4B5017D
:1006E000D5D3885F89839881F6019083F701808351
:1006F00061E08DE3C6DE81DF1F5F22961A30A9F626
:100700006FC080915901813009F067C0CBE5D3E01B
:1007100010E00F2EF9E5CF2EF3E0DF2EF02D0F2E97
:10072000FAE5EF2EF3E0FF2EF02D00E50F2EFEE1AF
:100730008F2E912CF02D10FD24C05E0189819881AF
:10074000F6019083F701808361E080E29ADE888180
:10075000803528F490910401890F888306C018829F
:1007600003D4B40193D3885F8983F501818190819B
:10077000F6019083F701808361E08DE382DE3DDF47
:1007800023C05E0189819881F6019083F7018083FF
:1007900061E080E276DE8881853028F09091040166
:1007A000891B888306C00883DFD3B4016FD3885FB9
:1007B0008983F50181819081F6019083F70180831F
:1007C00061E08DE35EDE19DF1F5F22961A3009F0CB
:1007D000B2CF7724739400E003C07724739400E0D1
:1007E000872D902FDF91CF911F910F91FF90EF9068
:1007F000DF90CF90BF90AF909F908F907F900895A3
:10080000109A119A0895119A109A119820B130E017
:100810002095309522FB882780F990E040E150E058
:100820001098880F991F20B130E02095309522FB59
:10083000662760F970E0862B972B109A415051097A
:1008400079F70895CF93DF93009721F081309105D8
:1008500051F012C081E0C0E090915901913009F04F
:1008600080E0D82F11C081E0C0E090915901911132
:1008700001C080E0D82F15C0009721F0019709F042
:1008800061C00DC0D0E0C0E080915901813009F015
:100890005BC0E8E9F3E08AE28083818355C0D0E061
:1008A000C0E080915901813009F04EC0ACDF9093D7
:1008B0005B0180935A01E8E9F3E081819081909394
:1008C000590380935A0361E080E2DBDD80915A0195
:1008D00090915B018038910541F4809198038035B7
:1008E00020F58D5F8093980320C0811520E4920746
:1008F00041F4809198038530C0F083508093980331
:1009000014C0811520E8920741F480919903883240
:1009100060F48D5F8093990308C08034910529F4B9
:10092000E8E9F3E0818183508183E8E9F3E08181A4
:1009300090819093590380935A0361E08AE2A1DD8C
:100940005CDE02C0D0E0C0E08D2F9C2FDF91CF9104
:100950000895CF92DF92FF920F931F93CF93DF936F
:100960008230910539F134F4009769F081309105B6
:10097000C9F08AC08330910509F452C084309105D2
:1009800009F468C081C03FDF90935B0180935A01F6
:100990008115904109F05EC181E080935901C1E069
:1009A000D0E087C080915901813009F45CC1C1E079
:1009B000D0E0B3C028DF9C0190935B0180935A0183
:1009C00090915801913009F43FC19111C2C08091BA
:1009D000990381110DC0809104018F5F8093040100
:1009E00080919A038F5F80939A03C3E0D0E0B6C0F2
:1009F000211580E2380729F02032310509F027C19E
:100A000005C010925901C0E0D0E0A8C01092590171
:100A100081E08093040110929A03C0E0D0E09EC070
:100A2000F2DE90935B0180935A018115E0E29E070C
:100A300031F481E080935901C0E0D0E0CDC08097CF
:100A400009F00EC181E08093040110929A03C0E086
:100A5000D0E0CDC0D8DE90935B0180935A01811520
:100A6000F0E29F0731F481E080935901C0E0D0E0CB
:100A70007CC0809709F0F1C081E08093040110925E
:100A80009A03C0E0D0E07CC08230910509F464C0D4
:100A900034F4009761F0019709F0D3C03CC0833073
:100AA000910509F497C0049709F0CBC05CC0C0E081
:100AB000D0E080E090E066D280939D038F3F31F4D8
:100AC00010929D0360E080E090E064D28091580134
:100AD000813011F410929A0380919D038BB995DCBB
:100AE0000F2EF9E5CF2EF3E0DF2EF02DF601108268
:100AF0000AE513E0F801108261E089E091E06BDD26
:100B0000F60110828AE0F801808361E080E191E0E3
:100B100062DD73DDABC0C0E0D0E077DC0F2EF9E51D
:100B2000CF2EF3E0DF2EF02DF60110820AE513E060
:100B3000F801108261E083E291E04DDDF601108260
:100B40008AE0F801808361E08DE191E044DD55DDCC
:100B50008DC0C0E0D0E002C0C0E0D0E080919A0338
:100B60008BB94BDD83C0C0E0D0E060919A038091E7
:100B70009D03861728F460939D0380E090E00AD2DD
:100B80001092590180919A038BB93FDC0F2EF9E541
:100B9000CF2EF3E0DF2EF02DF60110820AE513E0F0
:100BA000F801108261E08AE291E015DDF601108221
:100BB0000F2EF4E1FF2EF02DF801F08263E08AE3BE
:100BC00060DCF601F082F801F08263E088E259DC33
:100BD00014DD4CC0C0E0D0E060919A0380919D0389
:100BE000861728F460939D0380E090E0D3D11092A3
:100BF000590180919A038BB908DC0F2EF9E5CF2EAD
:100C0000F3E0DF2EF02DF60110820AE513E0F80183
:100C1000108261E081E491E0DEDCF60110820F2EAB
:100C2000F4E1FF2EF02DF801F08263E08AE329DC85
:100C3000F601F082F801F08263E089E222DCDDDC7B
:100C400015C0C0E0D0E012C0C4E0D0E087CFC2E061
:100C5000D0E084CFC0E0D0E02CCFC4E0D0E085CF9E
:100C6000C3E0D0E0B9CFC2E0D0E057CFCE01DF91F2
:100C7000CF911F910F91FF90DF90CF9008956093D7
:100C8000050170930601809307019093080160931A
:100C90005C0170935D0180935E0190935F01089504
:100CA0008BE0809381008DE790E0909389008093A2
:100CB000880082E080936F0010928500109284007B
:100CC0008091050190910601A0910701B091080162
:100CD00080935C0190935D01A0935E01B0935F01EE
:100CE0008FB780688FBF08951F920F920FB60F9233
:100CF00011248F939F93AF93BF9380915C01909148
:100D00005D01A0915E01B0915F010197A109B10958
:100D100080935C0190935D01A0935E01B0935F01AD
:100D2000892B8A2B8B2B99F481E080936001809131
:100D3000050190910601A0910701B09108018093EF
:100D40005C0190935D01A0935E01B0935F01BF9140
:100D5000AF919F918F910F900FBE0F901F9018959C
:100D6000CF93DF93CDB7DEB7A8970FB6F894DEBF69
:100D70000FBECDBF83E081B912B88FEF8AB91BB81F
:100D8000CE0101969AA389A308969CA38BA30896EB
:100D90009EA38DA3089698A78FA31A82198288EC28
:100DA00090E09C838B839E838D8322E234E038879E
:100DB0002F831A8619869C878B879E878D8784E16F
:100DC00093E0988B8F871A8A198A84E690E09C8B2F
:100DD0008B8B9E8B8D8B25E731E0388F2F8B1A8E76
:100DE000198E9C8F8B8F9E8F8D8F89EA94E098A3AC
:100DF0008F8F64E670E080E090E041DF51DFCFDA72
:100E0000FFDC6E0189E2C80ED11C7E01A1E2EA0E70
:100E1000F11CF701019111917F01D80114962D91D8
:100E20003C91159712968D919C911397281739072D
:100E300064F01696ED91FC9117978D919C91099510
:100E4000F8019183808315821482D80114968D91C4
:100E50009C9115978C599F4F15969C938E93149740
:100E6000EC14FD04B1F6809160018823E1F3109247
:100E70006001CBCF991B79E004C0991F961708F049
:100E8000961B881F7A95C9F78095089597FB072EC2
:100E900016F4009406D077FD08D00BD007FC05D0DF
:100EA0003EF4909581959F4F0895709561957F4F81
:100EB0000895AA1BBB1B51E107C0AA1FBB1FA617A1
:100EC000B70710F0A61BB70B881F991F5A95A9F7F3
:100ED00080959095BC01CD0108958F929F92AF921D
:100EE000BF92CF92DF92EF92FF92CF93DF93EC010C
:100EF000688179818A819B816115710581059105E0
:100F000021F464E279ED8BE597E02DE133EF41E0E8
:100F100050E04ED049015A019B01AC01A7EAB1E46F
:100F200063D06B017C01ACEEB4EFA501940168D0F5
:100F3000DC01CB018C0D9D1DAE1DBF1DB7FF03C095
:100F40000197A109B04888839983AA83BB839F77BF
:100F5000DF91CF91FF90EF90DF90CF90BF90AF9057
:100F60009F908F900895B9CF80E091E0B6CFA0E038
:100F7000B0E08093000190930101A0930201B0932F
:100F800003010895F999FECF92BD81BDF89A992782
:100F900080B50895262FF999FECF1FBA92BD81BD65
:100FA00020BD0FB6F894FA9AF99A0FBE01960895EB
:100FB000052E97FB16F400940FD057FD05D024D0D2
:100FC00007FC02D046F408C0509540953095219515
:100FD0003F4F4F4F5F4F0895909580957095619565
:100FE0007F4F8F4F9F4F089531D0A59F900DB49F95
:100FF000900DA49F800D911D11240895B7FFF4CF8B
:10100000F3DF821B930B0895A1E21A2EAA1BBB1BD0
:10101000FD010DC0AA1FBB1FEE1FFF1FA217B307C4
:10102000E407F50720F0A21BB30BE40BF50B661FDA
:10103000771F881F991F1A9469F76095709580959E
:1010400090959B01AC01BD01CF010895A29FB00115
:10105000B39FC001A39F700D811D1124911DB29FEC
:0E106000700D811D1124911D0895F894FFCF8D
:10106E0001000000010100000052656164793F003B
:10107E0050726573732053746172742100202020A6
:10108E0020202020202020202000594F55204C4F7A
:10109E005354212050726573732053656C656374CD
:1010AE0000594F5520574F4E2120507265737320B3
:0810BE0053656C6563740000CA
:00000001FF
