S01B00006D6A696D653035315F6C6162395F70617274322E7372656352
S113000055C0000070C000006EC000006CC000004D
S11300106AC0000068C0000066C0000064C0000040
S113002062C0000060C000005EC000005CC0000050
S11300305AC0000058C0000056C0000054C0000060
S113004052C0000050C000004EC000004CC0000070
S11300504AC0000048C0000046C0000044C0000080
S113006042C0000040C000003EC000003CC0000090
S11300703AC0000038C0000036C0000034C00000A0
S113008032C0000030C000002EC00000FA0004019D
S11300900C011301240130012A01340144014901F6
S11300A081014B018101590181016C0111241FBEA1
S11300B0CFEFD0E4DEBFCDBF11E0A0E0B1E0E4EAD1
S11300C0F6E000E00BBF02C007900D92A031B1072B
S11300D0D9F721E0A0E1B1E001C01D92A631B20739
S11300E0E1F711D1DDC28CCFCF92DF92EF92FF9274
S11300F06B017C019B01AC016091110170911201B3
S113010080911301909114010CD1882309F44FC0FC
S113011020E030E0A901C701B60103D1811106C076
S1130120E1E9F0E080818870808305C0E1E9F0E0D6
S113013080818360808328E539E344E75FE3C70176
S1130140B601EFD088233CF48FEF9FEF9093990092
S11301508093980023C020E034E244EF56E4C701C2
S1130160B6012ED218162CF4109299001092980011
S113017015C020E030E040E053E4C701B60124D2CA
S11301809B01AC0160E074E284EF9AE4CED035D1F7
S113019061507109709399006093980016BCC092E5
S11301A01101D0921201E0921301F0921401FF9018
S11301B0EF90DF90CF90089580E4809390008BE0DF
S11301C08093910060E070E0CB018ECF089510928F
S11301D09000109291000895CF93C82F209115019B
S11301E0822F90E08830910508F042C0FC01EA5B60
S11301F0FF4F4DC2ECDFC13019F41092150144C019
S113020081E08093150145C0C13009F042C082E00D
S113021080931501D1DF2CC0C13009F472C083E092
S11302208093150138C0C13019F4109215012CC007
S1130230C23021F484E08093150163C0C43059F5C1
S113024086E0809315015DC0C23009F025E020935B
S113025015010EC0C43009F027E02093150108C031
S113026083E08093150117C083E08093150113C0C8
S1130270E09115018E2F90E08830910508F03FC081
S1130280FC01E25BFF4F03C2109210018FEF8BB9A8
S113029038C01BB836C0E0911001F0E0EE0FFF1F2C
S11302A0E050FF4F6081718180E090E0D7D01CDF87
S11302B028C0E0911001E73020F5EF5FE0931001D2
S11302C0F0E0EE0FFF1FE050FF4F6081718180E08E
S11302D090E0C4D009DF15C0E0911001EE2389F04D
S11302E0E150E0931001F0E0EE0FFF1FE050FF4FEC
S11302F06081718180E090E0B1D0F6DE02C010929E
S11303001001CF9108958FEF84B915B811B882B94F
S11303108AB91BB81092150180B1809587705CDF93
S1130320FBCFD9D008F481E008950CD00FC107D1D8
S113033040F0FED030F021F45F3F19F0F0C05111CD
S113034039C1F3C014D198F39923C9F35523B1F3F8
S1130350951B550BBB27AA2762177307840738F030
S11303609F5F5F4F220F331F441FAA1FA9F333D08F
S11303700E2E3AF0E0E830D091505040E695001C43
S1130380CAF729D0FE2F27D0660F771F881FBB1FFF
S1130390261737074807AB07B0E809F0BB0B802DD9
S11303A0BF01FF2793585F4F2AF09E3F510568F025
S11303B0B6C000C15F3FECF3983EDCF386957795B9
S11303C06795B795F7959F5FC9F7880F911D969527
S11303D0879597F90895E1E0660F771F881FBB1F83
S11303E0621773078407BA0720F0621B730B840B30
S11303F0BA0BEE1F88F7E095089504D06894B11104
S1130400D9C00895BCD088F09F5790F0B92F992790
S1130410B751A0F0D1F0660F771F881F991F1AF00B
S1130420BA95C9F712C0B13081F0C3D0B1E00895D4
S1130430C0C0672F782F8827B85F39F0B93FCCF355
S1130440869577956795B395D9F73EF49095809501
S1130450709561957F4F8F4F9F4F0895E89409C021
S113046097FB3EF490958095709561957F4F8F4FE3
S11304709F4F9923A9F0F92F96E9BB279395F695F9
S1130480879577956795B795F111F8CFFAF4BB0F77
S113049011F460FF1BC06F5F7F4F8F4F9F4F16C0DB
S11304A0882311F096E911C0772321F09EE8872F65
S11304B0762F05C0662371F096E8862F70E060E021
S11304C02AF09A95660F771F881FDAF7880F96959A
S11304D0879597F90895990F0008550FAA0BE0E83E
S11304E0FEEF16161706E807F907C0F012161306F2
S11304F0E407F50798F0621B730B840B950B39F432
S11305000A2661F0232B242B252B21F408950A2697
S113051009F4A140A6958FEF811D811D089597F9D7
S11305209F6780E870E060E008959FEF80EC089595
S113053000240A94161617061806090608950024BE
S11305400A9412161306140605060895092E039438
S1130550000C11F4882352F0BB0F40F4BF2B11F4AC
S113056060FF04C06F5F7F4F8F4F9F4F089557FD0B
S11305709058440F551F59F05F3F71F04795880F0D
S113058097FB991F61F09F3F79F0879508951216A4
S113059013061406551FF2CF4695F1DF08C0161650
S11305A017061806991FF1CF869571056105089401
S11305B00895E894BB2766277727CB0197F9089518
S11305C08ADF08F48FEF08950BD0C0CFB1DF28F095
S11305D0B6DF18F0952309F0A2CFA7CF1124EACFF4
S11305E0C6DFA0F3959FD1F3950F50E0551F629F8E
S11305F0F001729FBB27F00DB11D639FAA27F00D78
S1130600B11DAA1F649F6627B00DA11D661F829F9E
S11306102227B00DA11D621F739FB00DA11D621F83
S1130620839FA00D611D221F749F3327A00D611DA0
S1130630231F849F600D211D822F762F6A2F112482
S11306409F5750408AF0E1F088234AF0EE0FFF1FD5
S1130650BB1F661F771F881F91505040A9F79E3F0C
S1130660510570F05CCFA6CF5F3FECF3983EDCF30E
S1130670869577956795B795F795E7959F5FC1F749
S1130680FE2B880F911D9695879597F90895EE0F87
S1130690FF1F0024001C0BBE0790F691E02D099467
S10706A0F894FFCFF8
S11306A40501250149015D018801B801ED010B0231
S9030000FC
