:100000008AC00000A5C00000A3C00000A1C000007D
:100010009FC000009DC000009BC0000099C0000070
:1000200097C0000095C0000093C0000091C0000080
:100030008FC00000F4C100008BC0000089C0000028
:1000400087C0000085C0000083C0000081C00000A0
:100050007FC000007DC000007BC0000079C00000B0
:1000600077C0000075C0000073C0000071C00000C0
:100070006FC000006DC000006BC0000069C00000D0
:1000800067C0000065C0000063C00000E401E1013A
:10009000E101E101E101E101E101E101E101E10150
:1000A000E101E101E101E101E101E101E101E10140
:1000B000E101E101E101E101E101E101E101E10130
:1000C000E101E101E101E101E101E101E101E10120
:1000D000E101D701E101E101E101E101E101E1011A
:1000E000C401E101E101E101E101E101CE014301CE
:1000F0004C01560160016A0174017E018801920180
:10010000E101E101E101E101E101E101E1019C0124
:10011000A601B001BA0111241FBECFEFD0E4DEBFAB
:10012000CDBF11E0A0E0B1E0E2E7F5E000E00BBFF9
:1001300002C007900D92A430B107D9F721E0A4E0E6
:10014000B1E001C01D92A531B207E1F7B5D10FC2F0
:1001500057CF181619065CF0089500002150310998
:10016000E1F74F5F5F4F8417950719F4089540E05A
:1001700050E027E033E0F1CF10988BB9119A0000DE
:10018000119882E090E0E5CF0895813118F481580C
:10019000F3CF08958155F0CF089584E690E0D9DF3C
:1001A00088E3EADF86E0E8DF8FE0E6DF81E0E4DF96
:1001B0008AE090E0CECF0895109A8BB9119A000092
:1001C000119881E090E0C5CF08958FEE88B90000C6
:1001D000309B29C0319B29C0329B29C0339B29C049
:1001E0008FED88B90000309B26C0319B26C0329B22
:1001F00026C0339B26C08FEB88B90000309B23C0FC
:10020000319B23C0329B23C0339B23C08FE788B927
:100210000000309B20C0319B20C0329B20C0339B0C
:1002200020C080E0089581E3089584E3089587E382
:1002300008958AE2089582E3089585E3089588E3A6
:10024000089580E3089583E3089586E3089589E39C
:10025000089583E2089581E4089582E4089583E493
:10026000089584E40895CF93DF93EC01AEDF2097E7
:1002700009F0ADC090E08534910508F0A2C0FC0102
:10028000EA5BFF4F6BC181E0809314017EDF8091B8
:100290001401805D91DF98C082E08093140181E0B9
:1002A00074DF80911401805D87DF8EC083E08093CE
:1002B000140181E06ADF80911401805D7DDF84C0DC
:1002C00084E08093140181E060DF80911401805DFF
:1002D00073DF7AC085E08093140181E056DF80915E
:1002E0001401805D69DF70C086E08093140181E0B5
:1002F0004CDF80911401805D5FDF66C087E08093F2
:10030000140181E042DF80911401805D55DF5CC003
:1003100088E08093140181E038DF80911401805DD2
:100320004BDF52C089E08093140181E02EDF809181
:100330001401805D41DF48C08AE08093140181E0B0
:1003400024DF80911401895C37DF3EC08BE080930D
:10035000140181E01ADF80911401895C2DDF34C023
:100360008CE08093140181E010DF80911401895C9E
:1003700023DF2AC08DE08093140181E006DF8091A5
:100380001401895C19DF20C08EE08093140181E0A4
:10039000FCDE80911401845E0FDF16C01092140100
:1003A00081E0F3DE80911401805D06DF0DC08FE0F7
:1003B0008093140181E0E9DE809114018C5EFCDE03
:1003C00003C08BE1809314018091140185B9CE01A3
:1003D000DF91CF9108958BE0809381008DE790E0CD
:1003E0009093890080938800EFE6F0E0808182603E
:1003F000808310928500109284008091000190917A
:100400000101A0910201B091030180930F0190932B
:100410001001A0931101B0931201789408951F92D6
:100420000F920FB60F9211248F939F93AF93BF93A8
:1004300080910F0190911001A0911101B0911201D2
:100440000197A109B10980930F0190931001A09326
:100450001101B0931201892B8A2B8B2B99F481E027
:10046000809313018091000190910101A0910201FC
:10047000B091030180930F0190931001A09311019B
:10048000B0931201BF91AF919F918F910F900FBECA
:100490000F901F9018956093000170930101809355
:1004A00002019093030160930F01709310018093F8
:1004B00011019093120108958FEF81B912B884B998
:1004C00015B890EF97B99FE098B98AB91BB8E4E0E6
:1004D000F1E0108282E390E0A0E0B0E081839283BB
:1004E000A383B48385839683A783B08783E391E056
:1004F0009287818761E070E080E090E0CCDF6BDF85
:100500004CDEC4E0D1E04D815E816F8178858981C8
:100510009A81AB81BC81481759076A077B0760F055
:100520008881E985FA85082E000C990B0995888346
:100530001D821E821F8218868D819E81AF81B885A3
:100540000196A11DB11D8D839E83AF83B8878091D5
:1005500013018823E1F310921301D5CFEE0FFF1F93
:100560000024001C0BBE0790F691E02D0994F8942E
:02057000FFCFBB
:040572000100000084
:00000001FF
